{
  "_format": "hh-sol-artifact-1",
  "contractName": "DocumentVerificationV2",
  "sourceName": "contracts/DocumentVerificationV2.sol",
  "abi": [
    {
      "inputs": [],
      "stateMutability": "nonpayable",
      "type": "constructor"
    },
    {
      "anonymous": false,
      "inputs": [
        {
          "indexed": true,
          "internalType": "bytes32",
          "name": "role",
          "type": "bytes32"
        },
        {
          "indexed": true,
          "internalType": "bytes32",
          "name": "previousAdminRole",
          "type": "bytes32"
        },
        {
          "indexed": true,
          "internalType": "bytes32",
          "name": "newAdminRole",
          "type": "bytes32"
        }
      ],
      "name": "RoleAdminChanged",
      "type": "event"
    },
    {
      "anonymous": false,
      "inputs": [
        {
          "indexed": true,
          "internalType": "bytes32",
          "name": "role",
          "type": "bytes32"
        },
        {
          "indexed": true,
          "internalType": "address",
          "name": "account",
          "type": "address"
        },
        {
          "indexed": true,
          "internalType": "address",
          "name": "sender",
          "type": "address"
        }
      ],
      "name": "RoleGranted",
      "type": "event"
    },
    {
      "anonymous": false,
      "inputs": [
        {
          "indexed": true,
          "internalType": "bytes32",
          "name": "role",
          "type": "bytes32"
        },
        {
          "indexed": true,
          "internalType": "address",
          "name": "account",
          "type": "address"
        },
        {
          "indexed": true,
          "internalType": "address",
          "name": "sender",
          "type": "address"
        }
      ],
      "name": "RoleRevoked",
      "type": "event"
    },
    {
      "anonymous": false,
      "inputs": [
        {
          "indexed": true,
          "internalType": "bytes32",
          "name": "rootHash",
          "type": "bytes32"
        },
        {
          "indexed": true,
          "internalType": "address",
          "name": "uploader",
          "type": "address"
        }
      ],
      "name": "RootCreated",
      "type": "event"
    },
    {
      "anonymous": false,
      "inputs": [
        {
          "indexed": true,
          "internalType": "bytes32",
          "name": "rootHash",
          "type": "bytes32"
        },
        {
          "indexed": true,
          "internalType": "address",
          "name": "admin",
          "type": "address"
        },
        {
          "indexed": false,
          "internalType": "string",
          "name": "reason",
          "type": "string"
        }
      ],
      "name": "RootRevoked",
      "type": "event"
    },
    {
      "anonymous": false,
      "inputs": [
        {
          "indexed": true,
          "internalType": "bytes32",
          "name": "rootHash",
          "type": "bytes32"
        },
        {
          "indexed": true,
          "internalType": "bytes32",
          "name": "versionHash",
          "type": "bytes32"
        },
        {
          "indexed": false,
          "internalType": "string",
          "name": "cid",
          "type": "string"
        }
      ],
      "name": "VersionAdded",
      "type": "event"
    },
    {
      "anonymous": false,
      "inputs": [
        {
          "indexed": true,
          "internalType": "bytes32",
          "name": "versionHash",
          "type": "bytes32"
        },
        {
          "indexed": true,
          "internalType": "address",
          "name": "verifier",
          "type": "address"
        },
        {
          "indexed": false,
          "internalType": "bool",
          "name": "status",
          "type": "bool"
        }
      ],
      "name": "VersionStatus",
      "type": "event"
    },
    {
      "inputs": [],
      "name": "ADMIN_ROLE",
      "outputs": [
        {
          "internalType": "bytes32",
          "name": "",
          "type": "bytes32"
        }
      ],
      "stateMutability": "view",
      "type": "function"
    },
    {
      "inputs": [],
      "name": "DEFAULT_ADMIN_ROLE",
      "outputs": [
        {
          "internalType": "bytes32",
          "name": "",
          "type": "bytes32"
        }
      ],
      "stateMutability": "view",
      "type": "function"
    },
    {
      "inputs": [],
      "name": "VERIFIER_ROLE",
      "outputs": [
        {
          "internalType": "bytes32",
          "name": "",
          "type": "bytes32"
        }
      ],
      "stateMutability": "view",
      "type": "function"
    },
    {
      "inputs": [
        {
          "internalType": "bytes32",
          "name": "rootHash",
          "type": "bytes32"
        },
        {
          "internalType": "bytes32",
          "name": "newVersionHash",
          "type": "bytes32"
        },
        {
          "internalType": "string",
          "name": "cid",
          "type": "string"
        }
      ],
      "name": "addVersion",
      "outputs": [],
      "stateMutability": "nonpayable",
      "type": "function"
    },
    {
      "inputs": [
        {
          "internalType": "bytes32",
          "name": "role",
          "type": "bytes32"
        }
      ],
      "name": "getRoleAdmin",
      "outputs": [
        {
          "internalType": "bytes32",
          "name": "",
          "type": "bytes32"
        }
      ],
      "stateMutability": "view",
      "type": "function"
    },
    {
      "inputs": [
        {
          "internalType": "bytes32",
          "name": "role",
          "type": "bytes32"
        },
        {
          "internalType": "uint256",
          "name": "index",
          "type": "uint256"
        }
      ],
      "name": "getRoleMember",
      "outputs": [
        {
          "internalType": "address",
          "name": "",
          "type": "address"
        }
      ],
      "stateMutability": "view",
      "type": "function"
    },
    {
      "inputs": [
        {
          "internalType": "bytes32",
          "name": "role",
          "type": "bytes32"
        }
      ],
      "name": "getRoleMemberCount",
      "outputs": [
        {
          "internalType": "uint256",
          "name": "",
          "type": "uint256"
        }
      ],
      "stateMutability": "view",
      "type": "function"
    },
    {
      "inputs": [
        {
          "internalType": "bytes32",
          "name": "role",
          "type": "bytes32"
        }
      ],
      "name": "getRoleMembers",
      "outputs": [
        {
          "internalType": "address[]",
          "name": "",
          "type": "address[]"
        }
      ],
      "stateMutability": "view",
      "type": "function"
    },
    {
      "inputs": [
        {
          "internalType": "bytes32",
          "name": "rootHash",
          "type": "bytes32"
        }
      ],
      "name": "getRoot",
      "outputs": [
        {
          "internalType": "address",
          "name": "uploader",
          "type": "address"
        },
        {
          "internalType": "bool",
          "name": "revoked",
          "type": "bool"
        },
        {
          "internalType": "uint64",
          "name": "createdAt",
          "type": "uint64"
        },
        {
          "internalType": "string",
          "name": "domain",
          "type": "string"
        },
        {
          "internalType": "string",
          "name": "title",
          "type": "string"
        },
        {
          "internalType": "string",
          "name": "description",
          "type": "string"
        },
        {
          "internalType": "uint64",
          "name": "expiresAt",
          "type": "uint64"
        },
        {
          "internalType": "bytes32[]",
          "name": "versions",
          "type": "bytes32[]"
        }
      ],
      "stateMutability": "view",
      "type": "function"
    },
    {
      "inputs": [
        {
          "internalType": "bytes32",
          "name": "versionHash",
          "type": "bytes32"
        }
      ],
      "name": "getVersion",
      "outputs": [
        {
          "internalType": "bytes32",
          "name": "hash",
          "type": "bytes32"
        },
        {
          "internalType": "string",
          "name": "cid",
          "type": "string"
        },
        {
          "internalType": "bool",
          "name": "verified",
          "type": "bool"
        },
        {
          "internalType": "address",
          "name": "verifier",
          "type": "address"
        },
        {
          "internalType": "uint64",
          "name": "uploadedAt",
          "type": "uint64"
        }
      ],
      "stateMutability": "view",
      "type": "function"
    },
    {
      "inputs": [
        {
          "internalType": "bytes32",
          "name": "role",
          "type": "bytes32"
        },
        {
          "internalType": "address",
          "name": "account",
          "type": "address"
        }
      ],
      "name": "grantRole",
      "outputs": [],
      "stateMutability": "nonpayable",
      "type": "function"
    },
    {
      "inputs": [
        {
          "internalType": "bytes32",
          "name": "role",
          "type": "bytes32"
        },
        {
          "internalType": "address",
          "name": "account",
          "type": "address"
        }
      ],
      "name": "hasRole",
      "outputs": [
        {
          "internalType": "bool",
          "name": "",
          "type": "bool"
        }
      ],
      "stateMutability": "view",
      "type": "function"
    },
    {
      "inputs": [
        {
          "internalType": "bytes32",
          "name": "role",
          "type": "bytes32"
        },
        {
          "internalType": "address",
          "name": "account",
          "type": "address"
        }
      ],
      "name": "renounceRole",
      "outputs": [],
      "stateMutability": "nonpayable",
      "type": "function"
    },
    {
      "inputs": [
        {
          "internalType": "bytes32",
          "name": "role",
          "type": "bytes32"
        },
        {
          "internalType": "address",
          "name": "account",
          "type": "address"
        }
      ],
      "name": "revokeRole",
      "outputs": [],
      "stateMutability": "nonpayable",
      "type": "function"
    },
    {
      "inputs": [
        {
          "internalType": "bytes32",
          "name": "rootHash",
          "type": "bytes32"
        },
        {
          "internalType": "string",
          "name": "reason",
          "type": "string"
        }
      ],
      "name": "revokeRoot",
      "outputs": [],
      "stateMutability": "nonpayable",
      "type": "function"
    },
    {
      "inputs": [
        {
          "internalType": "bytes32",
          "name": "versionHash",
          "type": "bytes32"
        },
        {
          "internalType": "bool",
          "name": "status",
          "type": "bool"
        }
      ],
      "name": "setVerificationStatus",
      "outputs": [],
      "stateMutability": "nonpayable",
      "type": "function"
    },
    {
      "inputs": [
        {
          "internalType": "bytes4",
          "name": "interfaceId",
          "type": "bytes4"
        }
      ],
      "name": "supportsInterface",
      "outputs": [
        {
          "internalType": "bool",
          "name": "",
          "type": "bool"
        }
      ],
      "stateMutability": "view",
      "type": "function"
    },
    {
      "inputs": [
        {
          "internalType": "bytes32[]",
          "name": "rootHashes",
          "type": "bytes32[]"
        },
        {
          "internalType": "string[]",
          "name": "cids",
          "type": "string[]"
        },
        {
          "internalType": "string[]",
          "name": "domains",
          "type": "string[]"
        },
        {
          "internalType": "string[]",
          "name": "titles",
          "type": "string[]"
        },
        {
          "internalType": "string[]",
          "name": "descriptions",
          "type": "string[]"
        },
        {
          "internalType": "uint64[]",
          "name": "expiresAts",
          "type": "uint64[]"
        }
      ],
      "name": "uploadBatch",
      "outputs": [],
      "stateMutability": "nonpayable",
      "type": "function"
    },
    {
      "inputs": [
        {
          "internalType": "bytes32",
          "name": "rootHash",
          "type": "bytes32"
        },
        {
          "internalType": "string",
          "name": "cid",
          "type": "string"
        },
        {
          "internalType": "string",
          "name": "domain",
          "type": "string"
        },
        {
          "internalType": "string",
          "name": "title",
          "type": "string"
        },
        {
          "internalType": "string",
          "name": "description",
          "type": "string"
        },
        {
          "internalType": "uint64",
          "name": "expiresAt",
          "type": "uint64"
        }
      ],
      "name": "uploadDocumentRoot",
      "outputs": [],
      "stateMutability": "nonpayable",
      "type": "function"
    }
  ],
  "bytecode": "0x6080604052346102225733600090815260008051602061219e833981519152602052604090205460ff16156101e2575b600080526001602052610062337fa6eef7e35abe7026729641147f7915573c7e97b47efa546f5f6e3230263bcb49610227565b5033600090815260008051602061211e833981519152602052604090205460ff1615610192575b60008051602061215e83398151915260005260016020526100ca337f50efbde2d46c37e9785f1791697f77e94bb7b701e19f1930a668820722d37694610227565b5033600090815260008051602061213e833981519152602052604090205460ff1615610142575b60008051602061217e8339815191526000526001602052610132337fb4fd2442cb0653849f414a2f81c1eb01ec27a0fc1bb28000d4ca51d98b75fd03610227565b50604051611e4690816102b88239f35b33600081815260008051602061213e83398151915260205260408120805460ff19166001179055819060008051602061217e833981519152906000805160206120fe8339815191529080a46100f1565b33600081815260008051602061211e83398151915260205260408120805460ff19166001179055819060008051602061215e833981519152906000805160206120fe8339815191529080a4610089565b33600081815260008051602061219e83398151915260205260408120805460ff1916600117905581906000805160206120fe8339815191528180a461002f565b600080fd5b60018101908260005281602052604060002054156000146102af57805468010000000000000000811015610299576001810180835581101561028357839082600052602060002001555491600052602052604060002055600190565b634e487b7160e01b600052603260045260246000fd5b634e487b7160e01b600052604160045260246000fd5b50505060009056fe608080604052600436101561001357600080fd5b60003560e01c90816301ffc9a71461106b57508063089eae7e14610d6e578063248a9ca314610d395780632f2ff15d14610c6b57806336568abe14610be7578063424edf0114610ac257806349a5ea4814610a10578063604570341461075e57806375b238fc1461072357806384f94221146105c0578063875832ed146103e05780639010d07c1461039857806391d14854146103585780639aaf9f08146102c5578063a217fddf146102a9578063a3246ad314610195578063ca15c87314610169578063d547741f146101305763e7705db6146100f057600080fd5b3461012b57600036600319011261012b5760206040517f0ce23c3e399818cfee81a7ab0880f714e53d7672b08df0fa62f2843416e1ea098152f35b600080fd5b3461012b5761016761014136611105565b9061016261015d82600052600060205260016040600020015490565b611503565b611541565b005b3461012b57602036600319011261012b5760043560005260016020526020604060002054604051908152f35b3461012b57602036600319011261012b57600435806000526001602052604060002054906101c2826114ec565b916101d06040519384611236565b8083526101dc816114ec565b602084019290601f190136843760005b8281106102415783856040519182916020830190602084525180915260408301919060005b81811061021f575050500390f35b82516001600160a01b0316845285945060209384019390920191600101610211565b816000526001602052610258816040600020611335565b9054865160039290921b1c6001600160a01b03169190811015610293576001600160a01b03909116600582901b8601602001526001016101ec565b634e487b7160e01b600052603260045260246000fd5b3461012b57600036600319011261012b57602060405160008152f35b3461012b57602036600319011261012b57600435600052600360205260406000206002810154906001600160401b038260a81c16916103058315156113b7565b6103136001835493016113f7565b92610330604051948594855260a0602086015260a085019061114e565b60ff83161515604085015260089290921c6001600160a01b0316606084015260808301520390f35b3461012b5761036636611105565b90600052600060205260406000209060018060a01b0316600052602052602060ff604060002054166040519015158152f35b3461012b57604036600319011261012b57600435600052600160205260206103c7604060002060243590611335565b905460405160039290921b1c6001600160a01b03168152f35b3461012b5760c036600319011261012b576004356001600160401b03811161012b57610410903690600401611173565b906024356001600160401b03811161012b57610430903690600401611173565b90926044356001600160401b03811161012b57610451903690600401611173565b9190946064356001600160401b03811161012b57610473903690600401611173565b906084356001600160401b03811161012b57610493903690600401611173565b92909160a4356001600160401b03811161012b576104b5903690600401611173565b969095898214806105b7575b806105ae575b806105a5575b8061059c575b156105665760005b8281106104e457005b808b8b8f938f8b8b8f938f9381808f938f938f8f9061050784809492819361149b565b359d610512926114ab565b9b61051e92919f6114ab565b9561052a9291956114ab565b966105369291966114ab565b9761054292919761149b565b35966001600160401b038816880361012b5760019a610560996115e8565b016104db565b60405162461bcd60e51b815260206004820152600e60248201526d082e4e4c2f240dad2e6dac2e8c6d60931b6044820152606490fd5b508782146104d3565b508582146104cd565b508382146104c7565b508882146104c1565b3461012b57602036600319011261012b57600435600052600260205260406000208054906001600160401b038260a81c166105fc8115156111a3565b6001600160401b0360048301541690600583019261061c600182016113f7565b90610635600361062e600284016113f7565b92016113f7565b91604051938460208854918281520190819860005260206000209060005b81811061070d575060ff8b8b8b60208c6106cd8d6106bf8e6106b18f8f8f8861067d910389611236565b6040519c8d9c8d60018060a01b038216905260a01c161515898d015260408c015261010060608c01526101008b019061114e565b9089820360808b015261114e565b9087820360a089015261114e565b9260c086015284830360e0860152519182815201919060005b8181106106f4575050500390f35b82518452859450602093840193909201916001016106e6565b8254845260209093019260019283019201610653565b3461012b57600036600319011261012b5760206040517fa49807205ce4d355092ef5a8a18f56e8913cf4a201fbe287825b095693c217758152f35b3461012b57604036600319011261012b57600435602435908115159182810361012b573360009081527f1da0b5176dfe03406af5a6eed66ca01dda9b45ac4da671c3fa379cb93717ef81602052604090205460ff1615610930578160005260036020526107e06001600160401b0360026040600020015460a81c1615156113b7565b8160005260046020526040600020548060005260026020526108146001600160401b0360406000205460a81c1615156111a3565b80600052600260205261083260ff60406000205460a01c16156111e0565b8060005260026020526001600160401b03600460406000200154166108d6575b506108799082600052600360205260026040600020019060ff801983541691151516179055565b60008181526003602052604090206002018054610100600160a81b0319163360081b610100600160a81b03161790556040519182527f79dcb3c220724f4c19ac87c6bbc1ad54f830a31d48e91d154d7a2fd0bfc70fdb60203393a3005b60005260026020526001600160401b036004604060002001541642116108fc5783610852565b60405162461bcd60e51b815260206004820152600c60248201526b149bdbdd08195e1c1a5c995960a21b6044820152606490fd5b610a0c61093c33611adb565b6109ec601161096a7f0ce23c3e399818cfee81a7ab0880f714e53d7672b08df0fa62f2843416e1ea09611c1b565b9260376040519485927f416363657373436f6e74726f6c3a206163636f756e742000000000000000000060208501526109ac815180926020868801910161112b565b83017001034b99036b4b9b9b4b733903937b6329607d1b838201526109db82518093602060488501910161112b565b01010301601f198101835282611236565b60405162461bcd60e51b815260206004820152918291602483019061114e565b0390fd5b3461012b5760c036600319011261012b576024356001600160401b03811161012b57610a409036906004016110d8565b6044356001600160401b03811161012b57610a5f9036906004016110d8565b906064356001600160401b03811161012b57610a7f9036906004016110d8565b906084356001600160401b03811161012b57610a9f9036906004016110d8565b94909360a435966001600160401b038816880361012b57610167986004356115e8565b3461012b57604036600319011261012b576004356024356001600160401b03811161012b57610af59036906004016110d8565b3360009081527fad3228b676f7d3cd4284a5443f17f1962b36e491b30a40b2405849e597ba5fb5602052604090205491929160ff1615610bab57610ba67f2fd829a7d534cda4bb049d2c02378f6696283d27b0b70a8558f08343a9fc598291836000526002602052610b796001600160401b0360406000205460a81c1615156111a3565b8360005260026020526040600020600160a01b60ff60a01b1982541617905560405191829133968361138f565b0390a3005b60405162461bcd60e51b81526020600482015260146024820152735265737472696374656420746f2061646d696e7360601b6044820152606490fd5b3461012b57610bf536611105565b336001600160a01b03821603610c0e5761016791611541565b60405162461bcd60e51b815260206004820152602f60248201527f416363657373436f6e74726f6c3a2063616e206f6e6c792072656e6f756e636560448201526e103937b632b9903337b91039b2b63360891b6064820152608490fd5b3461012b57610167610c7c36611105565b90610c9861015d82600052600060205260016040600020015490565b6000818152602081815260408083206001600160a01b038616845290915290205460ff1615610ce1575b60009081526001602052604090206001600160a01b0390911690611cc7565b6000818152602081815260408083206001600160a01b03861680855292528220805460ff19166001179055339183907f2f8788117e7eff1d82e926ec794901d17c78024a50270940304540a733656f0d9080a4610cc2565b3461012b57602036600319011261012b576020610d66600435600052600060205260016040600020015490565b604051908152f35b3461012b57606036600319011261012b576024356004356044356001600160401b03811161012b57610da49036906004016110d8565b90826000526002602052610dca6001600160401b0360406000205460a81c1615156111a3565b826000526002602052610de860ff60406000205460a01c16156111e0565b8360005260036020526001600160401b0360026040600020015460a81c1661103557604051610e168161121b565b848152610e24368484611272565b6020820190815260408201916000835260608101906000825260808101926001600160401b03421684528860005260036020526040600020915182556001820190518051906001600160401b03821161101f57610e8b82610e8585546112a9565b856112e3565b602090601f8311600114610f8f5760026001600160401b0395610f4b9895610ee686610f2397600080516020611df18339815191529f9e9d9b97610f0097600092610f84575b50508160011b916000199060031b1c19161790565b90555b0195511515869060ff801983541691151516179055565b518454610100600160a81b03191660089190911b610100600160a81b0316178455565b51825467ffffffffffffffff60a81b1916911660a81b67ffffffffffffffff60a81b16179055565b836000526002602052610f6585600560406000200161134d565b84600052600460205283604060002055610ba66040519283928361138f565b015190503880610ed1565b90601f1983169184600052816000209260005b818110611007575095610f4b9895600186600080516020611df18339815191529e9d9c9a96610f0096600296610f239a6001600160401b039d10610fee575b505050811b019055610ee9565b015160001960f88460031b161c19169055388080610fe1565b92936020600181928786015181550195019301610fa2565b634e487b7160e01b600052604160045260246000fd5b60405162461bcd60e51b815260206004820152600e60248201526d56657273696f6e2065786973747360901b6044820152606490fd5b3461012b57602036600319011261012b576004359063ffffffff60e01b821680920361012b57602091635a05180f60e01b81149081156110ad575b5015158152f35b637965db0b60e01b8114915081156110c7575b50836110a6565b6301ffc9a760e01b149050836110c0565b9181601f8401121561012b578235916001600160401b03831161012b576020838186019501011161012b57565b604090600319011261012b57600435906024356001600160a01b038116810361012b5790565b60005b83811061113e5750506000910152565b818101518382015260200161112e565b906020916111678151809281855285808601910161112b565b601f01601f1916010190565b9181601f8401121561012b578235916001600160401b03831161012b576020808501948460051b01011161012b57565b156111aa57565b60405162461bcd60e51b815260206004820152600e60248201526d149bdbdd081b9bdd08199bdd5b9960921b6044820152606490fd5b156111e757565b60405162461bcd60e51b815260206004820152600c60248201526b149bdbdd081c995d9bdad95960a21b6044820152606490fd5b60a081019081106001600160401b0382111761101f57604052565b90601f801991011681019081106001600160401b0382111761101f57604052565b6001600160401b03811161101f57601f01601f191660200190565b92919261127e82611257565b9161128c6040519384611236565b82948184528183011161012b578281602093846000960137010152565b90600182811c921680156112d9575b60208310146112c357565b634e487b7160e01b600052602260045260246000fd5b91607f16916112b8565b601f82116112f057505050565b6000526020600020906020601f840160051c8301931061132b575b601f0160051c01905b81811061131f575050565b60008155600101611314565b909150819061130b565b80548210156102935760005260206000200190600090565b8054906801000000000000000082101561101f578161137491600161138b94018155611335565b819391549060031b91821b91600019901b19161790565b9055565b90918060409360208452816020850152848401376000828201840152601f01601f1916010190565b156113be57565b60405162461bcd60e51b815260206004820152601160248201527015995c9cda5bdb881b9bdd08199bdd5b99607a1b6044820152606490fd5b906040519182600082549261140b846112a9565b80845293600181169081156114795750600114611432575b5061143092500383611236565b565b90506000929192526020600020906000915b81831061145d5750509060206114309282010138611423565b6020919350806001915483858901015201910190918492611444565b90506020925061143094915060ff191682840152151560051b82010138611423565b91908110156102935760051b0190565b91908110156102935760051b81013590601e198136030182121561012b5701908135916001600160401b03831161012b57602001823603811361012b579190565b6001600160401b03811161101f5760051b60200190565b60008181526020818152604080832033845290915290205460ff16156115265750565b610a0c906109ec601161096a61153b33611adb565b93611c1b565b9061159091806000526000602052604060002060018060a01b03831660005260205260ff60406000205416611593575b60009081526001602052604090206001600160a01b0390911690611d07565b50565b6000818152602081815260408083206001600160a01b03861680855292528220805460ff19169055339183907ff6391f5c32d9c69d2a47ea670b442974b53935d1edc7fd64eb21e047a839171b9080a4611571565b97919692949095999893998860005260026020526001600160401b0360406000205460a81c16611a97578815611a63576000898152600260205260409020805468ffffffffffffffffff60a01b1933166001600160e81b0319909116174260a881901b67ffffffffffffffff60a81b169190911782556001600160401b03169b90969060018801916001600160401b03821161101f5761168c82610e8585546112a9565b600090601f83116001146119ff576116bc92916000918361192c5750508160011b916000199060031b1c19161790565b90555b60028601916001600160401b03821161101f576116e082610e8585546112a9565b600090601f831160011461199b5761171092916000918361192c5750508160011b916000199060031b1c19161790565b90555b60038401916001600160401b03821161101f5761173482610e8585546112a9565b600090601f83116001146119375761176492916000918361192c5750508160011b916000199060031b1c19161790565b90555b6001600160401b036004830191166001600160401b03198254161790556040516117908161121b565b84815261179e368585611272565b9660208201978852604082019160008352606081019860008a52608082019283528760005260036020526040600020915182556001820190518051906001600160401b03821161101f576117f682610e8585546112a9565b602090601f83116001146118ac578a9b9c95610f238c97610f006002600599600080516020611df18339815191529f9e9d99610ee68a6118619f9a9b61185b9c6001600160401b039b600092610f845750508160011b916000199060031b1c19161790565b0161134d565b836000526004602052836040600020556118a760405192839233877ff98b8723b3e5ea186f8532124095114a20079e73ed75cb0d67442371f6dae020600080a38361138f565b0390a3565b90601f1983169184600052816000209260005b81811061191457508c9d9e610f0060028f9a9499600080516020611df18339815191529f9e9d9960018a6118619f9a6001600160401b039a60059f61185b9e610f239b10610fee57505050811b019055610ee9565b929360206001819287860151815501950193016118bf565b013590503880610ed1565b8382526020822091601f198416815b8181106119835750908460019594939210611969575b505050811b019055611767565b0135600019600384901b60f8161c1916905538808061195c565b91936020600181928787013581550195019201611946565b8382526020822091601f198416815b8181106119e757509084600195949392106119cd575b505050811b019055611713565b0135600019600384901b60f8161c191690553880806119c0565b919360206001819287870135815501950192016119aa565b8382526020822091601f198416815b818110611a4b5750908460019594939210611a31575b505050811b0190556116bf565b0135600019600384901b60f8161c19169055388080611a24565b91936020600181928787013581550195019201611a0e565b60405162461bcd60e51b815260206004820152600c60248201526b092dcecc2d8d2c840d0c2e6d60a31b6044820152606490fd5b60405162461bcd60e51b815260206004820152600b60248201526a526f6f742065786973747360a81b6044820152606490fd5b908151811015610293570160200190565b600090611ae8602a611257565b91611af66040519384611236565b602a8352611b04602a611257565b6020840190601f1901368237835115611c075760309053825160011015611bf3576078602184015350602960005b60018211611b87575050611b435790565b606460405162461bcd60e51b815260206004820152602060248201527f537472696e67733a20686578206c656e67746820696e73756666696369656e746044820152fd5b9091600f81166010811015611bdf576f181899199a1a9b1b9c1cb0b131b232b360811b901a611bb68486611aca565b5360041c918015611bcb576000190190611b32565b634e487b7160e01b82526011600452602482fd5b634e487b7160e01b83526032600452602483fd5b634e487b7160e01b81526032600452602490fd5b634e487b7160e01b82526032600452602482fd5b600090611c286042611257565b91611c366040519384611236565b60428352611c446042611257565b6020840190601f1901368237835115611c075760309053825160011015611bf3576078602184015350604160005b60018211611c83575050611b435790565b9091600f81166010811015611bdf576f181899199a1a9b1b9c1cb0b131b232b360811b901a611cb28486611aca565b5360041c918015611bcb576000190190611c72565b6001810190826000528160205260406000205415600014611cff57611cec838261134d565b5491600052602052604060002055600190565b505050600090565b9060018201918160005282602052604060002054801515600014611de7576000198101818111611dd1578254600019810191908211611dd157808203611d9a575b50505080548015611d84576000190190611d628282611335565b8154906000199060031b1b191690555560005260205260006040812055600190565b634e487b7160e01b600052603160045260246000fd5b611dba611daa6113749386611335565b90549060031b1c92839286611335565b905560005283602052604060002055388080611d48565b634e487b7160e01b600052601160045260246000fd5b5050505060009056fea9802d925b7c2a1c03d4883273ec68bc631134bfb0d77f6d8cf5143ce051c143a2646970667358221220be30e9fc8be088444a8b56a0e2d358278365de6af602338ed9737c1e03dd9f2f64736f6c634300081c00332f8788117e7eff1d82e926ec794901d17c78024a50270940304540a733656f0d7d7ffb7a348e1c6a02869081a26547b49160dd3df72d1d75a570eb9b698292ec1da0b5176dfe03406af5a6eed66ca01dda9b45ac4da671c3fa379cb93717ef81a49807205ce4d355092ef5a8a18f56e8913cf4a201fbe287825b095693c217750ce23c3e399818cfee81a7ab0880f714e53d7672b08df0fa62f2843416e1ea09ad3228b676f7d3cd4284a5443f17f1962b36e491b30a40b2405849e597ba5fb5",
  "linkReferences": {},
  "deployedLinkReferences": {}
}