{
  "_format": "hh-sol-artifact-1",
  "contractName": "DocumentVerification",
  "sourceName": "contracts/DocumentVerification.sol",
  "abi": [
    {
      "inputs": [],
      "stateMutability": "nonpayable",
      "type": "constructor"
    },
    {
      "anonymous": false,
      "inputs": [
        {
          "indexed": false,
          "internalType": "bytes32",
          "name": "docId",
          "type": "bytes32"
        },
        {
          "indexed": false,
          "internalType": "uint256",
          "name": "versionIndex",
          "type": "uint256"
        }
      ],
      "name": "DocumentRevoked",
      "type": "event"
    },
    {
      "anonymous": false,
      "inputs": [
        {
          "indexed": false,
          "internalType": "bytes32",
          "name": "docId",
          "type": "bytes32"
        },
        {
          "indexed": false,
          "internalType": "address",
          "name": "uploader",
          "type": "address"
        },
        {
          "indexed": false,
          "internalType": "uint256",
          "name": "versionIndex",
          "type": "uint256"
        },
        {
          "indexed": false,
          "internalType": "string",
          "name": "cid",
          "type": "string"
        }
      ],
      "name": "DocumentUploaded",
      "type": "event"
    },
    {
      "anonymous": false,
      "inputs": [
        {
          "indexed": false,
          "internalType": "bytes32",
          "name": "docId",
          "type": "bytes32"
        },
        {
          "indexed": false,
          "internalType": "uint256",
          "name": "versionIndex",
          "type": "uint256"
        },
        {
          "indexed": false,
          "internalType": "address",
          "name": "verifier",
          "type": "address"
        }
      ],
      "name": "DocumentVerified",
      "type": "event"
    },
    {
      "anonymous": false,
      "inputs": [
        {
          "indexed": false,
          "internalType": "string",
          "name": "domain",
          "type": "string"
        },
        {
          "indexed": false,
          "internalType": "address",
          "name": "admin",
          "type": "address"
        }
      ],
      "name": "DomainAdminAdded",
      "type": "event"
    },
    {
      "anonymous": false,
      "inputs": [
        {
          "indexed": false,
          "internalType": "string",
          "name": "domain",
          "type": "string"
        },
        {
          "indexed": false,
          "internalType": "address",
          "name": "verifier",
          "type": "address"
        }
      ],
      "name": "DomainVerifierAdded",
      "type": "event"
    },
    {
      "anonymous": false,
      "inputs": [
        {
          "indexed": true,
          "internalType": "bytes32",
          "name": "role",
          "type": "bytes32"
        },
        {
          "indexed": true,
          "internalType": "bytes32",
          "name": "previousAdminRole",
          "type": "bytes32"
        },
        {
          "indexed": true,
          "internalType": "bytes32",
          "name": "newAdminRole",
          "type": "bytes32"
        }
      ],
      "name": "RoleAdminChanged",
      "type": "event"
    },
    {
      "anonymous": false,
      "inputs": [
        {
          "indexed": true,
          "internalType": "bytes32",
          "name": "role",
          "type": "bytes32"
        },
        {
          "indexed": true,
          "internalType": "address",
          "name": "account",
          "type": "address"
        },
        {
          "indexed": true,
          "internalType": "address",
          "name": "sender",
          "type": "address"
        }
      ],
      "name": "RoleGranted",
      "type": "event"
    },
    {
      "anonymous": false,
      "inputs": [
        {
          "indexed": true,
          "internalType": "bytes32",
          "name": "role",
          "type": "bytes32"
        },
        {
          "indexed": true,
          "internalType": "address",
          "name": "account",
          "type": "address"
        },
        {
          "indexed": true,
          "internalType": "address",
          "name": "sender",
          "type": "address"
        }
      ],
      "name": "RoleRevoked",
      "type": "event"
    },
    {
      "inputs": [],
      "name": "DEFAULT_ADMIN_ROLE",
      "outputs": [
        {
          "internalType": "bytes32",
          "name": "",
          "type": "bytes32"
        }
      ],
      "stateMutability": "view",
      "type": "function"
    },
    {
      "inputs": [],
      "name": "DOMAIN_ADMIN_ROLE",
      "outputs": [
        {
          "internalType": "bytes32",
          "name": "",
          "type": "bytes32"
        }
      ],
      "stateMutability": "view",
      "type": "function"
    },
    {
      "inputs": [],
      "name": "SUPER_ADMIN_ROLE",
      "outputs": [
        {
          "internalType": "bytes32",
          "name": "",
          "type": "bytes32"
        }
      ],
      "stateMutability": "view",
      "type": "function"
    },
    {
      "inputs": [],
      "name": "VERIFIER_ROLE",
      "outputs": [
        {
          "internalType": "bytes32",
          "name": "",
          "type": "bytes32"
        }
      ],
      "stateMutability": "view",
      "type": "function"
    },
    {
      "inputs": [
        {
          "internalType": "string",
          "name": "domain",
          "type": "string"
        },
        {
          "internalType": "address",
          "name": "admin",
          "type": "address"
        }
      ],
      "name": "addDomainAdmin",
      "outputs": [],
      "stateMutability": "nonpayable",
      "type": "function"
    },
    {
      "inputs": [
        {
          "internalType": "string",
          "name": "domain",
          "type": "string"
        },
        {
          "internalType": "address",
          "name": "verifier",
          "type": "address"
        }
      ],
      "name": "addDomainVerifier",
      "outputs": [],
      "stateMutability": "nonpayable",
      "type": "function"
    },
    {
      "inputs": [
        {
          "internalType": "bytes32",
          "name": "docId",
          "type": "bytes32"
        },
        {
          "internalType": "string",
          "name": "cid",
          "type": "string"
        },
        {
          "internalType": "uint256",
          "name": "approvalsRequired",
          "type": "uint256"
        },
        {
          "internalType": "address[]",
          "name": "orgs",
          "type": "address[]"
        }
      ],
      "name": "addVersion",
      "outputs": [],
      "stateMutability": "nonpayable",
      "type": "function"
    },
    {
      "inputs": [
        {
          "internalType": "bytes32[]",
          "name": "docIds",
          "type": "bytes32[]"
        },
        {
          "internalType": "string[]",
          "name": "titles",
          "type": "string[]"
        },
        {
          "internalType": "string[]",
          "name": "domains_",
          "type": "string[]"
        },
        {
          "internalType": "string[]",
          "name": "descriptions",
          "type": "string[]"
        },
        {
          "internalType": "string[]",
          "name": "cids",
          "type": "string[]"
        },
        {
          "internalType": "uint256[]",
          "name": "approvalsRequired",
          "type": "uint256[]"
        },
        {
          "internalType": "address[][]",
          "name": "orgs",
          "type": "address[][]"
        }
      ],
      "name": "batchUpload",
      "outputs": [],
      "stateMutability": "nonpayable",
      "type": "function"
    },
    {
      "inputs": [
        {
          "internalType": "bytes32",
          "name": "role",
          "type": "bytes32"
        }
      ],
      "name": "fetchRoleMemberCount",
      "outputs": [
        {
          "internalType": "uint256",
          "name": "",
          "type": "uint256"
        }
      ],
      "stateMutability": "view",
      "type": "function"
    },
    {
      "inputs": [
        {
          "internalType": "bytes32",
          "name": "role",
          "type": "bytes32"
        }
      ],
      "name": "fetchRoleMembers",
      "outputs": [
        {
          "internalType": "address[]",
          "name": "members",
          "type": "address[]"
        }
      ],
      "stateMutability": "view",
      "type": "function"
    },
    {
      "inputs": [
        {
          "internalType": "bytes32",
          "name": "docId",
          "type": "bytes32"
        }
      ],
      "name": "getDocument",
      "outputs": [
        {
          "internalType": "string",
          "name": "title",
          "type": "string"
        },
        {
          "internalType": "string",
          "name": "domain",
          "type": "string"
        },
        {
          "internalType": "string",
          "name": "description",
          "type": "string"
        },
        {
          "internalType": "uint256",
          "name": "versionCount",
          "type": "uint256"
        },
        {
          "internalType": "address[]",
          "name": "orgs",
          "type": "address[]"
        }
      ],
      "stateMutability": "view",
      "type": "function"
    },
    {
      "inputs": [
        {
          "internalType": "bytes32",
          "name": "role",
          "type": "bytes32"
        }
      ],
      "name": "getRoleAdmin",
      "outputs": [
        {
          "internalType": "bytes32",
          "name": "",
          "type": "bytes32"
        }
      ],
      "stateMutability": "view",
      "type": "function"
    },
    {
      "inputs": [
        {
          "internalType": "bytes32",
          "name": "role",
          "type": "bytes32"
        },
        {
          "internalType": "uint256",
          "name": "index",
          "type": "uint256"
        }
      ],
      "name": "getRoleMember",
      "outputs": [
        {
          "internalType": "address",
          "name": "",
          "type": "address"
        }
      ],
      "stateMutability": "view",
      "type": "function"
    },
    {
      "inputs": [
        {
          "internalType": "bytes32",
          "name": "role",
          "type": "bytes32"
        }
      ],
      "name": "getRoleMemberCount",
      "outputs": [
        {
          "internalType": "uint256",
          "name": "",
          "type": "uint256"
        }
      ],
      "stateMutability": "view",
      "type": "function"
    },
    {
      "inputs": [
        {
          "internalType": "bytes32",
          "name": "docId",
          "type": "bytes32"
        },
        {
          "internalType": "uint256",
          "name": "versionIndex",
          "type": "uint256"
        }
      ],
      "name": "getVersion",
      "outputs": [
        {
          "internalType": "bytes32",
          "name": "hash",
          "type": "bytes32"
        },
        {
          "internalType": "string",
          "name": "cid",
          "type": "string"
        },
        {
          "internalType": "uint256",
          "name": "uploadedAt",
          "type": "uint256"
        },
        {
          "internalType": "uint256",
          "name": "approvalsRequired",
          "type": "uint256"
        },
        {
          "internalType": "uint256",
          "name": "approvalsDone",
          "type": "uint256"
        },
        {
          "internalType": "bool",
          "name": "revoked",
          "type": "bool"
        },
        {
          "internalType": "address[]",
          "name": "approvers",
          "type": "address[]"
        }
      ],
      "stateMutability": "view",
      "type": "function"
    },
    {
      "inputs": [
        {
          "internalType": "bytes32",
          "name": "role",
          "type": "bytes32"
        },
        {
          "internalType": "address",
          "name": "account",
          "type": "address"
        }
      ],
      "name": "grantRole",
      "outputs": [],
      "stateMutability": "nonpayable",
      "type": "function"
    },
    {
      "inputs": [
        {
          "internalType": "bytes32",
          "name": "role",
          "type": "bytes32"
        },
        {
          "internalType": "address",
          "name": "account",
          "type": "address"
        }
      ],
      "name": "hasRole",
      "outputs": [
        {
          "internalType": "bool",
          "name": "",
          "type": "bool"
        }
      ],
      "stateMutability": "view",
      "type": "function"
    },
    {
      "inputs": [
        {
          "internalType": "bytes32",
          "name": "docId",
          "type": "bytes32"
        },
        {
          "internalType": "uint256",
          "name": "versionIndex",
          "type": "uint256"
        }
      ],
      "name": "isVerified",
      "outputs": [
        {
          "internalType": "bool",
          "name": "",
          "type": "bool"
        }
      ],
      "stateMutability": "view",
      "type": "function"
    },
    {
      "inputs": [
        {
          "internalType": "bytes32",
          "name": "role",
          "type": "bytes32"
        },
        {
          "internalType": "address",
          "name": "account",
          "type": "address"
        }
      ],
      "name": "renounceRole",
      "outputs": [],
      "stateMutability": "nonpayable",
      "type": "function"
    },
    {
      "inputs": [
        {
          "internalType": "bytes32",
          "name": "docId",
          "type": "bytes32"
        },
        {
          "internalType": "uint256",
          "name": "versionIndex",
          "type": "uint256"
        }
      ],
      "name": "revokeDocument",
      "outputs": [],
      "stateMutability": "nonpayable",
      "type": "function"
    },
    {
      "inputs": [
        {
          "internalType": "bytes32",
          "name": "role",
          "type": "bytes32"
        },
        {
          "internalType": "address",
          "name": "account",
          "type": "address"
        }
      ],
      "name": "revokeRole",
      "outputs": [],
      "stateMutability": "nonpayable",
      "type": "function"
    },
    {
      "inputs": [
        {
          "internalType": "bytes4",
          "name": "interfaceId",
          "type": "bytes4"
        }
      ],
      "name": "supportsInterface",
      "outputs": [
        {
          "internalType": "bool",
          "name": "",
          "type": "bool"
        }
      ],
      "stateMutability": "view",
      "type": "function"
    },
    {
      "inputs": [
        {
          "internalType": "bytes32",
          "name": "docId",
          "type": "bytes32"
        },
        {
          "internalType": "string",
          "name": "title",
          "type": "string"
        },
        {
          "internalType": "string",
          "name": "domain",
          "type": "string"
        },
        {
          "internalType": "string",
          "name": "description",
          "type": "string"
        },
        {
          "internalType": "string",
          "name": "cid",
          "type": "string"
        },
        {
          "internalType": "uint256",
          "name": "approvalsRequired",
          "type": "uint256"
        },
        {
          "internalType": "address[]",
          "name": "orgs",
          "type": "address[]"
        }
      ],
      "name": "uploadDocument",
      "outputs": [],
      "stateMutability": "nonpayable",
      "type": "function"
    },
    {
      "inputs": [
        {
          "internalType": "bytes32",
          "name": "docId",
          "type": "bytes32"
        },
        {
          "internalType": "uint256",
          "name": "versionIndex",
          "type": "uint256"
        }
      ],
      "name": "verifyDocument",
      "outputs": [],
      "stateMutability": "nonpayable",
      "type": "function"
    }
  ],
  "bytecode": "0x60806040523461016a57336000908152600080516020612682833981519152602052604090205460ff161561012a575b600080526001602052610062337fa6eef7e35abe7026729641147f7915573c7e97b47efa546f5f6e3230263bcb4961016f565b50336000908152600080516020612662833981519152602052604090205460ff16156100da575b60008051602061264283398151915260005260016020526100ca337f4b1c7aa45c3671e2a7dda048a711d044de1f7dd354c5bd0acacddf7260b39d4e61016f565b5060405161242290816102008239f35b33600081815260008051602061266283398151915260205260408120805460ff191660011790558190600080516020612642833981519152906000805160206126228339815191529080a4610089565b33600081815260008051602061268283398151915260205260408120805460ff1916600117905581906000805160206126228339815191528180a461002f565b600080fd5b60018101908260005281602052604060002054156000146101f7578054680100000000000000008110156101e157600181018083558110156101cb57839082600052602060002001555491600052602052604060002055600190565b634e487b7160e01b600052603260045260246000fd5b634e487b7160e01b600052604160045260246000fd5b50505060009056fe608080604052600436101561001357600080fd5b60003560e01c90816301ffc9a71461142e5750806312d6c439146111c2578063248a9ca31461118d5780632f2ff15d146110b157806335b84d1914610df657806336568abe14610d64578063406495b814610d3b57806341316b2b14610c455780634460bdd614610c0a5780636219044c146109d05780639010d07c1461099257806391d1485414610945578063a217fddf14610929578063a9baa23c1461060c578063af904a061461056d578063b10d6b41146104c5578063ca15c87314610225578063cacac9eb14610484578063ce73fe44146103a8578063d547741f14610363578063e7705db61461033a578063e7b7608d14610251578063f28aff5f146102255763f6b711e91461012757600080fd5b346102205760e0366003190112610220576024356001600160401b038111610220576101579036906004016114e1565b906044356001600160401b038111610220576101779036906004016114e1565b6064939193356001600160401b038111610220576101999036906004016114e1565b9190946084356001600160401b038111610220576101bb9036906004016114e1565b93909160c435906001600160401b0382116102205761021e98610201610209926101f96101ef61021596369060040161149b565b9c909b3691611678565b973691611678565b933691611678565b9260a435953691611678565b926004356118e2565b005b600080fd5b346102205760203660031901126102205760043560005260016020526020604060002054604051908152f35b34610220577f17ceb56661e717a45c4f9160c9106b02e3c9ab6ecb42da2b1c6a59e8cbfd4aa1604061028236611550565b8160005260026020526005836000207f7613a25ecc738585a232ad50a301178f12b3ba8887d13e138b523c4269c4768960005260006020528460002060018060a01b03331660005260205260ff856000205416801561030c575b6102e59061183a565b826000520160205260048360002001600160ff1982541617905582519182526020820152a1005b506000805160206123ad8339815191526000908152602081815286822033835290528590205460ff166102dc565b346102205760003660031901126102205760206040516000805160206123cd8339815191528152f35b346102205760403660031901126102205761021e6004356103826114cb565b906103a361039e82600052600060205260016040600020015490565b611f86565b611fc4565b34610220576020366003190112610220576004358060005260016020526040600020546103d4816118cb565b916103e2604051938461163c565b818352601f196103f1836118cb565b0136602085013760005b82811061041c5760405160208082528190610418908201876115ae565b0390f35b816000526001602052610433816040600020611822565b9054855160039290921b1c6001600160a01b0316919081101561046e576001600160a01b03909116600582901b8501602001526001016103fb565b634e487b7160e01b600052603260045260246000fd5b346102205761049236611550565b90600052600260205260056040600020019060005260205260206040600020600360068201549101541115604051908152f35b3461022057602036600319011261022057600435600052600260205261053e604060002061041860048201546104fd60018401611780565b9261055a61050d60028301611780565b9161054c610529600661052260038501611780565b9301611877565b9360405198899860a08a5260a08a0190611589565b9088820360208a0152611589565b908682036040880152611589565b91606085015283820360808501526115ae565b346102205761057b36611550565b9060005260026020526005604060002001906000526020526040600020805461041860028301546003840154600685019485546105cb6105c5600160ff6004860154169401611780565b97611877565b926105e8604051988998895260e060208a015260e0890190611589565b94604088015260608701526080860152151560a085015283820360c08501526115ae565b346102205761061a36611550565b3360009081527f1da0b5176dfe03406af5a6eed66ca01dda9b45ac4da671c3fa379cb93717ef81602052604090205460ff161561085b5781600052600260205260406000209060048201548111610821578060005260058201602052604060002060ff6004820154166107ea5760006006600094018054945b8581106107ac575b50506106a99192935061183a565b600581019060018060a01b0333166000528160205260ff604060002054166107745760069160018060a01b0333166000526020526040600020600160ff198254161790550191825491600160401b83101561075e57610731837fdb6e4f10ec42090fd6b47f2cc671f03bb2ce59601bb84a0e3d56ccc3462837e2956001606096018155611822565b81549060031b9033821b9160018060a01b03901b19161790556040519182526020820152336040820152a1005b634e487b7160e01b600052604160045260246000fd5b60405162461bcd60e51b815260206004820152601060248201526f105b1c9958591e48185c1c1c9bdd995960821b6044820152606490fd5b6107b68183611822565b905460039190911b1c6001600160a01b031633146107d657600101610693565b5050509091506106a960018392918661069b565b60405162461bcd60e51b815260206004820152600f60248201526e15995c9cda5bdb881c995d9bdad959608a1b6044820152606490fd5b60405162461bcd60e51b815260206004820152601260248201527156657273696f6e206e6f742065786973747360701b6044820152606490fd5b6109256108673361207c565b61090560116108836000805160206123cd8339815191526121bc565b9260376040519485927f416363657373436f6e74726f6c3a206163636f756e742000000000000000000060208501526108c58151809260208688019101611566565b83017001034b99036b4b9b9b4b733903937b6329607d1b838201526108f4825180936020604885019101611566565b01010301601f19810183528261163c565b60405162461bcd60e51b8152602060048201529182916024830190611589565b0390fd5b3461022057600036600319011261022057602060405160008152f35b346102205760403660031901126102205761095e6114cb565b600435600052600060205260406000209060018060a01b0316600052602052602060ff604060002054166040519015158152f35b346102205760206109b76109a536611550565b90600052600183526040600020611822565b905460405160039290921b1c6001600160a01b03168152f35b34610220576109de3661150e565b3360009081527f47cf0b5913904a37ed3fcdc2ae2ee7b89a2542e97cfd2bd696b9629ce878903a602052604090205490929060ff1615610be257610a36604051838382376020818581016003815203019020546116af565b15610ba957610b267f022a16c10c7f1a3353d903606e9865a644a1791fe3b8beab4f4547038f8a12ea93600160405185858237600386820190815281900360209081019091206001600160a01b0384166000908152920181526040808320805460ff191660011790557f1da0b5176dfe03406af5a6eed66ca01dda9b45ac4da671c3fa379cb93717ef8190915290205460ff1615610b2b575b6000805160206123cd8339815191526000526001602052610b196001600160a01b0382167fb4fd2442cb0653849f414a2f81c1eb01ec27a0fc1bb28000d4ca51d98b75fd03612268565b5060405193849384611747565b0390a1005b6001600160a01b03811660008181527f1da0b5176dfe03406af5a6eed66ca01dda9b45ac4da671c3fa379cb93717ef8160205260408120805460ff191660011790553391906000805160206123cd833981519152907f2f8788117e7eff1d82e926ec794901d17c78024a50270940304540a733656f0d9080a4610acf565b60405162461bcd60e51b8152602060048201526011602482015270446f6d61696e206e6f742065786973747360781b6044820152606490fd5b610925610bee3361207c565b61090560116108836000805160206123ad8339815191526121bc565b346102205760003660031901126102205760206040517f7613a25ecc738585a232ad50a301178f12b3ba8887d13e138b523c4269c476898152f35b34610220576080366003190112610220576004356024356001600160401b03811161022057610c789036906004016114e1565b90916064356001600160401b03811161022057610c9990369060040161149b565b92909180600052600260205260046040600020015415610d0057600081815260026020819052604090912061021e9691600382019190810190610cfa90610cee90610ce8908190600101611780565b93611780565b93604435963691611678565b936118e2565b60405162461bcd60e51b8152602060048201526013602482015272446f63756d656e74206e6f742065786973747360681b6044820152606490fd5b346102205760003660031901126102205760206040516000805160206123ad8339815191528152f35b3461022057604036600319011261022057610d7d6114cb565b336001600160a01b03821603610d995761021e90600435611fc4565b60405162461bcd60e51b815260206004820152602f60248201527f416363657373436f6e74726f6c3a2063616e206f6e6c792072656e6f756e636560448201526e103937b632b9903337b91039b2b63360891b6064820152608490fd5b3461022057610e043661150e565b3360009081527f2155616cb3971b66bf28f1af4ff3722784e6d7a4b2b25bc9fe623232dcd690c8602052604090205490929060ff1615611077576001600160a01b03831660009081527f47cf0b5913904a37ed3fcdc2ae2ee7b89a2542e97cfd2bd696b9629ce878903a602052604090205460ff1615610ff9575b6000805160206123ad8339815191526000526001602052610ec96001600160a01b0384167f133164585e7f5d22c34c773a5975f045973949013153469de10f1c8fd5314a4e612268565b50604051828282376020818481016003815203019020926001600160401b03831161075e57610f0283610efc86546116af565b86611700565b600093601f8411600114610f725790610b2691610f5885807f5d0a9cfac5e6497e2230f3f8f66830d2b8bba0b3083eac9a1f36fc06821c288598600091610f67575b508160011b916000199060031b1c19161790565b90555b60405193849384611747565b905086013589610f44565b80855260208520601f198516865b818110610fe15750907f5d0a9cfac5e6497e2230f3f8f66830d2b8bba0b3083eac9a1f36fc06821c28859686610b2695949310610fc7575b5050600185811b019055610f5b565b850135600019600388901b60f8161c191690558680610fb8565b85880135835560209788019760019093019201610f80565b6001600160a01b03831660008181527f47cf0b5913904a37ed3fcdc2ae2ee7b89a2542e97cfd2bd696b9629ce878903a60205260408120805460ff191660011790553391906000805160206123ad833981519152907f2f8788117e7eff1d82e926ec794901d17c78024a50270940304540a733656f0d9080a4610e7f565b6109256110833361207c565b61090560116108837f7613a25ecc738585a232ad50a301178f12b3ba8887d13e138b523c4269c476896121bc565b346102205760403660031901126102205761021e6004356110d06114cb565b906110ec61039e82600052600060205260016040600020015490565b6000818152602081815260408083206001600160a01b038616845290915290205460ff1615611135575b60009081526001602052604090206001600160a01b0390911690612268565b6000818152602081815260408083206001600160a01b03861680855292528220805460ff19166001179055339183907f2f8788117e7eff1d82e926ec794901d17c78024a50270940304540a733656f0d9080a4611116565b346102205760203660031901126102205760206111ba600435600052600060205260016040600020015490565b604051908152f35b346102205760e0366003190112610220576004356001600160401b038111610220576111f290369060040161149b565b906024356001600160401b0381116102205761121290369060040161149b565b9290916044356001600160401b0381116102205761123490369060040161149b565b90926064356001600160401b0381116102205761125590369060040161149b565b96906084356001600160401b0381116102205761127690369060040161149b565b909860a4356001600160401b0381116102205761129790369060040161149b565b93909760c4356001600160401b038111610220576112b990369060040161149b565b9787811480611425575b8061141c575b80611413575b8061140a575b80611401575b156113cb579b36829003601e190192600091908e5b83106112f857005b8f8f938f8f8f8f8f8f8f8f8f89808f8f8f908361131881809581956115eb565b359a611323926115fb565b9b61132f92919e6115fb565b9561133b9291956115fb565b9561134792919e6115fb565b9561135392919a6115eb565b35958a101561046e578f8f8b60051b013590811215610220578f01978835986001600160401b038a1161022057602001978960051b360389136102205760019c6113b4610cfa946113ac6113c49e6113bc953691611678565b963691611678565b953691611678565b943691611678565b01926112f0565b60405162461bcd60e51b815260206004820152600e60248201526d082e4e4c2f240dad2e6dac2e8c6d60931b6044820152606490fd5b508887146112db565b508686146112d5565b508585146112cf565b50848a146112c9565b508988146112c3565b34610220576020366003190112610220576004359063ffffffff60e01b821680920361022057602091635a05180f60e01b8114908115611470575b5015158152f35b637965db0b60e01b81149150811561148a575b5083611469565b6301ffc9a760e01b14905083611483565b9181601f84011215610220578235916001600160401b038311610220576020808501948460051b01011161022057565b602435906001600160a01b038216820361022057565b9181601f84011215610220578235916001600160401b038311610220576020838186019501011161022057565b604060031982011261022057600435906001600160401b03821161022057611538916004016114e1565b90916024356001600160a01b03811681036102205790565b6040906003190112610220576004359060243590565b60005b8381106115795750506000910152565b8181015183820152602001611569565b906020916115a281518092818552858086019101611566565b601f01601f1916010190565b906020808351928381520192019060005b8181106115cc5750505090565b82516001600160a01b03168452602093840193909201916001016115bf565b919081101561046e5760051b0190565b919081101561046e5760051b81013590601e19813603018212156102205701908135916001600160401b038311610220576020018236038113610220579190565b90601f801991011681019081106001600160401b0382111761075e57604052565b6001600160401b03811161075e57601f01601f191660200190565b9291926116848261165d565b91611692604051938461163c565b829481845281830111610220578281602093846000960137010152565b90600182811c921680156116df575b60208310146116c957565b634e487b7160e01b600052602260045260246000fd5b91607f16916116be565b8181106116f4575050565b600081556001016116e9565b9190601f811161170f57505050565b61173b926000526020600020906020601f840160051c8301931061173d575b601f0160051c01906116e9565b565b909150819061172e565b918060609160209396959660408652816040870152838601376000828286010152601f80199101168301019360018060a01b0316910152565b9060405191826000825492611794846116af565b808452936001811690811561180057506001146117b9575b5061173b9250038361163c565b90506000929192526020600020906000915b8183106117e457505090602061173b92820101386117ac565b60209193508060019154838589010152019101909184926117cb565b90506020925061173b94915060ff191682840152151560051b820101386117ac565b805482101561046e5760005260206000200190600090565b1561184157565b60405162461bcd60e51b815260206004820152600e60248201526d139bdd08185d5d1a1bdc9a5e995960921b6044820152606490fd5b906040519182815491828252602082019060005260206000209260005b8181106118a957505061173b9250038361163c565b84546001600160a01b0316835260019485019487945060209093019201611894565b6001600160401b03811161075e5760051b60200190565b94979691939592856000526002602052604060002094600486019283548015600014611d555750878755805160018801916001600160401b03821161075e576119358261192f85546116af565b85611700565b602090601f8311600114611cee57611966929160009183611c11575b50508160011b916000199060031b1c19161790565b90555b805160028701916001600160401b03821161075e5761198c8261192f85546116af565b602090601f8311600114611c87576119bc929160009183611c115750508160011b916000199060031b1c19161790565b90555b805160038601916001600160401b03821161075e576119e28261192f85546116af565b602090601f8311600114611c1c579180611a17926001969594600092611c115750508160011b916000199060031b1c19161790565b90555b5560068301916001600160401b03821161075e57600160401b821161075e578254828455808310611bf3575b50916000526020600020916000905b828210611bce5750505050600590600160005201602052604060002081815560018101948351956001600160401b03871161075e57611a9e87611a9883546116af565b83611700565b602096601f8111600114611b445790611af48260049594937f7be9614b73b5536c16f1ddb06a893b8f39149c293104e11aa5e6d57167b5e4e6999a600091611b3957508160011b916000199060031b1c19161790565b90555b42600283015560038201550160ff198154169055611b34604051928392835233602084015260016040840152608060608401526080830190611589565b0390a1565b905088015138610f44565b601f19811682600052886000209060005b818110611bb65750916001917f7be9614b73b5536c16f1ddb06a893b8f39149c293104e11aa5e6d57167b5e4e6999a8260049897969510611b9d575b5050811b019055611af7565b89015160001960f88460031b161c191690553880611b91565b888b0151835560209a8b019a60019093019201611b55565b8035916001600160a01b03831683036102205760206001920192818601550190611a55565b611c0b908460005283602060002091820191016116e9565b38611a46565b015190503880611951565b90601f1983169184600052816000209260005b818110611c6f575091600196959492918388959310611c56575b505050811b019055611a1a565b015160001960f88460031b161c19169055388080611c49565b92936020600181928786015181550195019301611c2f565b90601f1983169184600052816000209260005b818110611cd65750908460019594939210611cbd575b505050811b0190556119bf565b015160001960f88460031b161c19169055388080611cb0565b92936020600181928786015181550195019301611c9a565b90601f1983169184600052816000209260005b818110611d3d5750908460019594939210611d24575b505050811b019055611969565b015160001960f88460031b161c19169055388080611d17565b92936020600181928786015181550195019301611d01565b9250505060009891969894929394198114611f70576001018096558560005260058201602052604060002090604051602081019087825288604082015242606082015260608152611da760808261163c565b51902082556001820189516001600160401b03811161075e57611dd481611dce84546116af565b84611700565b60208b601f8311600114611efe578260049593600698979593611e0d93600092611ef35750508160011b916000199060031b1c19161790565b90555b426002830155600382015501805460ff1916905501916001600160401b03821161075e57600160401b821161075e578254828455808310611ed5575b50916000526020600020916000905b828210611eb05750505050611b347f7be9614b73b5536c16f1ddb06a893b8f39149c293104e11aa5e6d57167b5e4e6939460405193849384523360208501526040840152608060608401526080830190611589565b8035916001600160a01b03831683036102205760206001920192818601550190611e5b565b611eed908460005283602060002091820191016116e9565b38611e4c565b01519050388f611951565b50601f19821690836000528c816000209260005b818110611f5657509260019285926004989660069b9a989610611f3d575b505050811b019055611e10565b015160001960f88460031b161c1916905538808f611f30565b9183015184556001909301926020928301928f9201611f12565b634e487b7160e01b600052601160045260246000fd5b60008181526020818152604080832033845290915290205460ff1615611fa95750565b610925906109056011610883611fbe3361207c565b936121bc565b9061201391806000526000602052604060002060018060a01b03831660005260205260ff60406000205416612016575b60009081526001602052604090206001600160a01b03909116906122d9565b50565b6000818152602081815260408083206001600160a01b03861680855292528220805460ff19169055339183907ff6391f5c32d9c69d2a47ea670b442974b53935d1edc7fd64eb21e047a839171b9080a4611ff4565b90815181101561046e570160200190565b600090612089602a61165d565b91612097604051938461163c565b602a83526120a5602a61165d565b6020840190601f19013682378351156121a85760309053825160011015612194576078602184015350602960005b600182116121285750506120e45790565b606460405162461bcd60e51b815260206004820152602060248201527f537472696e67733a20686578206c656e67746820696e73756666696369656e746044820152fd5b9091600f81166010811015612180576f181899199a1a9b1b9c1cb0b131b232b360811b901a612157848661206b565b5360041c91801561216c5760001901906120d3565b634e487b7160e01b82526011600452602482fd5b634e487b7160e01b83526032600452602483fd5b634e487b7160e01b81526032600452602490fd5b634e487b7160e01b82526032600452602482fd5b6000906121c9604261165d565b916121d7604051938461163c565b604283526121e5604261165d565b6020840190601f19013682378351156121a85760309053825160011015612194576078602184015350604160005b600182116122245750506120e45790565b9091600f81166010811015612180576f181899199a1a9b1b9c1cb0b131b232b360811b901a612253848661206b565b5360041c91801561216c576000190190612213565b60018101908260005281602052604060002054156000146122d1578054600160401b81101561075e576122bc6122a5826001879401855584611822565b819391549060031b91821b91600019901b19161790565b90555491600052602052604060002055600190565b505050600090565b90600182019181600052826020526040600020548015156000146123a3576000198101818111611f70578254600019810191908211611f705780820361236c575b505050805480156123565760001901906123348282611822565b8154906000199060031b1b191690555560005260205260006040812055600190565b634e487b7160e01b600052603160045260246000fd5b61238c61237c6122a59386611822565b90549060031b1c92839286611822565b90556000528360205260406000205538808061231a565b5050505060009056fe8601f95000f9db10f888b55a4dcf204d495f7b7e45e94a5425cd4562bae084680ce23c3e399818cfee81a7ab0880f714e53d7672b08df0fa62f2843416e1ea09a26469706673582212200066ad1646bf655fecaf6f599499c787ab5713695f280e7e4460839fa092ba5164736f6c634300081c00332f8788117e7eff1d82e926ec794901d17c78024a50270940304540a733656f0d7613a25ecc738585a232ad50a301178f12b3ba8887d13e138b523c4269c476892155616cb3971b66bf28f1af4ff3722784e6d7a4b2b25bc9fe623232dcd690c8ad3228b676f7d3cd4284a5443f17f1962b36e491b30a40b2405849e597ba5fb5",
  "linkReferences": {},
  "deployedLinkReferences": {}
}